{
  "contractName": "ImplementationV1",
  "abi": [
    {
      "anonymous": false,
      "inputs": [
        {
          "indexed": false,
          "internalType": "address",
          "name": "previousAdmin",
          "type": "address"
        },
        {
          "indexed": false,
          "internalType": "address",
          "name": "newAdmin",
          "type": "address"
        }
      ],
      "name": "AdminChanged",
      "type": "event"
    },
    {
      "anonymous": false,
      "inputs": [
        {
          "indexed": true,
          "internalType": "address",
          "name": "beacon",
          "type": "address"
        }
      ],
      "name": "BeaconUpgraded",
      "type": "event"
    },
    {
      "anonymous": false,
      "inputs": [
        {
          "indexed": false,
          "internalType": "uint8",
          "name": "version",
          "type": "uint8"
        }
      ],
      "name": "Initialized",
      "type": "event"
    },
    {
      "anonymous": false,
      "inputs": [
        {
          "indexed": true,
          "internalType": "address",
          "name": "implementation",
          "type": "address"
        }
      ],
      "name": "Upgraded",
      "type": "event"
    },
    {
      "inputs": [],
      "name": "proxiableUUID",
      "outputs": [
        {
          "internalType": "bytes32",
          "name": "",
          "type": "bytes32"
        }
      ],
      "stateMutability": "view",
      "type": "function"
    },
    {
      "inputs": [
        {
          "internalType": "address",
          "name": "newImplementation",
          "type": "address"
        }
      ],
      "name": "upgradeTo",
      "outputs": [],
      "stateMutability": "nonpayable",
      "type": "function"
    },
    {
      "inputs": [
        {
          "internalType": "address",
          "name": "newImplementation",
          "type": "address"
        },
        {
          "internalType": "bytes",
          "name": "data",
          "type": "bytes"
        }
      ],
      "name": "upgradeToAndCall",
      "outputs": [],
      "stateMutability": "payable",
      "type": "function"
    },
    {
      "inputs": [],
      "name": "initialize",
      "outputs": [],
      "stateMutability": "nonpayable",
      "type": "function"
    },
    {
      "inputs": [],
      "name": "getOwner",
      "outputs": [
        {
          "internalType": "address",
          "name": "",
          "type": "address"
        }
      ],
      "stateMutability": "view",
      "type": "function"
    }
  ],
  "bytecode": "0x60a06040523073ffffffffffffffffffffffffffffffffffffffff1660809073ffffffffffffffffffffffffffffffffffffffff1681525034801561004357600080fd5b506080516115ea61007b60003960008181610103015281816101910152818161028b0152818161031901526103c901526115ea6000f3fe60806040526004361061004a5760003560e01c80633659cfe61461004f5780634f1ef2861461007857806352d1902d146100945780638129fc1c146100bf578063893d20e8146100d6575b600080fd5b34801561005b57600080fd5b5061007660048036038101906100719190610c0d565b610101565b005b610092600480360381019061008d9190610d80565b610289565b005b3480156100a057600080fd5b506100a96103c5565b6040516100b69190610df5565b60405180910390f35b3480156100cb57600080fd5b506100d461047e565b005b3480156100e257600080fd5b506100eb6105fd565b6040516100f89190610e1f565b60405180910390f35b7f000000000000000000000000000000000000000000000000000000000000000073ffffffffffffffffffffffffffffffffffffffff163073ffffffffffffffffffffffffffffffffffffffff160361018f576040517f08c379a000000000000000000000000000000000000000000000000000000000815260040161018690610ebd565b60405180910390fd5b7f000000000000000000000000000000000000000000000000000000000000000073ffffffffffffffffffffffffffffffffffffffff166101ce610627565b73ffffffffffffffffffffffffffffffffffffffff1614610224576040517f08c379a000000000000000000000000000000000000000000000000000000000815260040161021b90610f4f565b60405180910390fd5b61022d8161067e565b61028681600067ffffffffffffffff81111561024c5761024b610c55565b5b6040519080825280601f01601f19166020018201604052801561027e5781602001600182028036833780820191505090505b506000610689565b50565b7f000000000000000000000000000000000000000000000000000000000000000073ffffffffffffffffffffffffffffffffffffffff163073ffffffffffffffffffffffffffffffffffffffff1603610317576040517f08c379a000000000000000000000000000000000000000000000000000000000815260040161030e90610ebd565b60405180910390fd5b7f000000000000000000000000000000000000000000000000000000000000000073ffffffffffffffffffffffffffffffffffffffff16610356610627565b73ffffffffffffffffffffffffffffffffffffffff16146103ac576040517f08c379a00000000000000000000000000000000000000000000000000000000081526004016103a390610f4f565b60405180910390fd5b6103b58261067e565b6103c182826001610689565b5050565b60007f000000000000000000000000000000000000000000000000000000000000000073ffffffffffffffffffffffffffffffffffffffff163073ffffffffffffffffffffffffffffffffffffffff1614610455576040517f08c379a000000000000000000000000000000000000000000000000000000000815260040161044c90610fe1565b60405180910390fd5b7f360894a13ba1a3210667c828492db98dca3e2076cc3735a920a3ca505d382bbc60001b905090565b60008060019054906101000a900460ff161590508080156104af5750600160008054906101000a900460ff1660ff16105b806104dc57506104be306107f7565b1580156104db5750600160008054906101000a900460ff1660ff16145b5b61051b576040517f08c379a000000000000000000000000000000000000000000000000000000000815260040161051290611073565b60405180910390fd5b60016000806101000a81548160ff021916908360ff1602179055508015610558576001600060016101000a81548160ff0219169083151502179055505b61056061081a565b33606560006101000a81548173ffffffffffffffffffffffffffffffffffffffff021916908373ffffffffffffffffffffffffffffffffffffffff16021790555080156105fa5760008060016101000a81548160ff0219169083151502179055507f7f26b83ff96e1f2b6a682f133852f6798a09c465da95921460cefb384740249860016040516105f191906110e5565b60405180910390a15b50565b6000606560009054906101000a900473ffffffffffffffffffffffffffffffffffffffff16905090565b60006106557f360894a13ba1a3210667c828492db98dca3e2076cc3735a920a3ca505d382bbc60001b61086b565b60000160009054906101000a900473ffffffffffffffffffffffffffffffffffffffff16905090565b610686610875565b50565b6106b57f4910fdfa16fed3260ed0e7147f7cc6da11a60208b5b9406d12a635614ffd914360001b610907565b60000160009054906101000a900460ff16156106d9576106d483610911565b6107f2565b8273ffffffffffffffffffffffffffffffffffffffff166352d1902d6040518163ffffffff1660e01b8152600401602060405180830381865afa92505050801561074157506040513d601f19601f8201168201806040525081019061073e919061112c565b60015b610780576040517f08c379a0000000000000000000000000000000000000000000000000000000008152600401610777906111cb565b60405180910390fd5b7f360894a13ba1a3210667c828492db98dca3e2076cc3735a920a3ca505d382bbc60001b81146107e5576040517f08c379a00000000000000000000000000000000000000000000000000000000081526004016107dc9061125d565b60405180910390fd5b506107f18383836109ca565b5b505050565b6000808273ffffffffffffffffffffffffffffffffffffffff163b119050919050565b600060019054906101000a900460ff16610869576040517f08c379a0000000000000000000000000000000000000000000000000000000008152600401610860906112ef565b60405180910390fd5b565b6000819050919050565b606560009054906101000a900473ffffffffffffffffffffffffffffffffffffffff1673ffffffffffffffffffffffffffffffffffffffff163373ffffffffffffffffffffffffffffffffffffffff1614610905576040517f08c379a00000000000000000000000000000000000000000000000000000000081526004016108fc9061135b565b60405180910390fd5b565b6000819050919050565b61091a816107f7565b610959576040517f08c379a0000000000000000000000000000000000000000000000000000000008152600401610950906113ed565b60405180910390fd5b806109867f360894a13ba1a3210667c828492db98dca3e2076cc3735a920a3ca505d382bbc60001b61086b565b60000160006101000a81548173ffffffffffffffffffffffffffffffffffffffff021916908373ffffffffffffffffffffffffffffffffffffffff16021790555050565b6109d3836109f6565b6000825111806109e05750805b156109f1576109ef8383610a45565b505b505050565b6109ff81610911565b8073ffffffffffffffffffffffffffffffffffffffff167fbc7cd75a20ee27fd9adebab32041f755214dbc6bffa90cc0225b39da2e5c2d3b60405160405180910390a250565b6060610a50836107f7565b610a8f576040517f08c379a0000000000000000000000000000000000000000000000000000000008152600401610a869061147f565b60405180910390fd5b6000808473ffffffffffffffffffffffffffffffffffffffff1684604051610ab79190611510565b600060405180830381855af49150503d8060008114610af2576040519150601f19603f3d011682016040523d82523d6000602084013e610af7565b606091505b5091509150610b1f828260405180606001604052806027815260200161158e60279139610b29565b9250505092915050565b60608315610b3957829050610b44565b610b438383610b4b565b5b9392505050565b600082511115610b5e5781518083602001fd5b806040517f08c379a0000000000000000000000000000000000000000000000000000000008152600401610b92919061156b565b60405180910390fd5b6000604051905090565b600080fd5b600080fd5b600073ffffffffffffffffffffffffffffffffffffffff82169050919050565b6000610bda82610baf565b9050919050565b610bea81610bcf565b8114610bf557600080fd5b50565b600081359050610c0781610be1565b92915050565b600060208284031215610c2357610c22610ba5565b5b6000610c3184828501610bf8565b91505092915050565b600080fd5b600080fd5b6000601f19601f8301169050919050565b7f4e487b7100000000000000000000000000000000000000000000000000000000600052604160045260246000fd5b610c8d82610c44565b810181811067ffffffffffffffff82111715610cac57610cab610c55565b5b80604052505050565b6000610cbf610b9b565b9050610ccb8282610c84565b919050565b600067ffffffffffffffff821115610ceb57610cea610c55565b5b610cf482610c44565b9050602081019050919050565b82818337600083830152505050565b6000610d23610d1e84610cd0565b610cb5565b905082815260208101848484011115610d3f57610d3e610c3f565b5b610d4a848285610d01565b509392505050565b600082601f830112610d6757610d66610c3a565b5b8135610d77848260208601610d10565b91505092915050565b60008060408385031215610d9757610d96610ba5565b5b6000610da585828601610bf8565b925050602083013567ffffffffffffffff811115610dc657610dc5610baa565b5b610dd285828601610d52565b9150509250929050565b6000819050919050565b610def81610ddc565b82525050565b6000602082019050610e0a6000830184610de6565b92915050565b610e1981610bcf565b82525050565b6000602082019050610e346000830184610e10565b92915050565b600082825260208201905092915050565b7f46756e6374696f6e206d7573742062652063616c6c6564207468726f7567682060008201527f64656c656761746563616c6c0000000000000000000000000000000000000000602082015250565b6000610ea7602c83610e3a565b9150610eb282610e4b565b604082019050919050565b60006020820190508181036000830152610ed681610e9a565b9050919050565b7f46756e6374696f6e206d7573742062652063616c6c6564207468726f7567682060008201527f6163746976652070726f78790000000000000000000000000000000000000000602082015250565b6000610f39602c83610e3a565b9150610f4482610edd565b604082019050919050565b60006020820190508181036000830152610f6881610f2c565b9050919050565b7f555550535570677261646561626c653a206d757374206e6f742062652063616c60008201527f6c6564207468726f7567682064656c656761746563616c6c0000000000000000602082015250565b6000610fcb603883610e3a565b9150610fd682610f6f565b604082019050919050565b60006020820190508181036000830152610ffa81610fbe565b9050919050565b7f496e697469616c697a61626c653a20636f6e747261637420697320616c72656160008201527f647920696e697469616c697a6564000000000000000000000000000000000000602082015250565b600061105d602e83610e3a565b915061106882611001565b604082019050919050565b6000602082019050818103600083015261108c81611050565b9050919050565b6000819050919050565b600060ff82169050919050565b6000819050919050565b60006110cf6110ca6110c584611093565b6110aa565b61109d565b9050919050565b6110df816110b4565b82525050565b60006020820190506110fa60008301846110d6565b92915050565b61110981610ddc565b811461111457600080fd5b50565b60008151905061112681611100565b92915050565b60006020828403121561114257611141610ba5565b5b600061115084828501611117565b91505092915050565b7f45524331393637557067726164653a206e657720696d706c656d656e7461746960008201527f6f6e206973206e6f742055555053000000000000000000000000000000000000602082015250565b60006111b5602e83610e3a565b91506111c082611159565b604082019050919050565b600060208201905081810360008301526111e4816111a8565b9050919050565b7f45524331393637557067726164653a20756e737570706f727465642070726f7860008201527f6961626c65555549440000000000000000000000000000000000000000000000602082015250565b6000611247602983610e3a565b9150611252826111eb565b604082019050919050565b600060208201905081810360008301526112768161123a565b9050919050565b7f496e697469616c697a61626c653a20636f6e7472616374206973206e6f74206960008201527f6e697469616c697a696e67000000000000000000000000000000000000000000602082015250565b60006112d9602b83610e3a565b91506112e48261127d565b604082019050919050565b60006020820190508181036000830152611308816112cc565b9050919050565b7f496e76616c6964206f776e657200000000000000000000000000000000000000600082015250565b6000611345600d83610e3a565b91506113508261130f565b602082019050919050565b6000602082019050818103600083015261137481611338565b9050919050565b7f455243313936373a206e657720696d706c656d656e746174696f6e206973206e60008201527f6f74206120636f6e747261637400000000000000000000000000000000000000602082015250565b60006113d7602d83610e3a565b91506113e28261137b565b604082019050919050565b60006020820190508181036000830152611406816113ca565b9050919050565b7f416464726573733a2064656c65676174652063616c6c20746f206e6f6e2d636f60008201527f6e74726163740000000000000000000000000000000000000000000000000000602082015250565b6000611469602683610e3a565b91506114748261140d565b604082019050919050565b600060208201905081810360008301526114988161145c565b9050919050565b600081519050919050565b600081905092915050565b60005b838110156114d35780820151818401526020810190506114b8565b60008484015250505050565b60006114ea8261149f565b6114f481856114aa565b93506115048185602086016114b5565b80840191505092915050565b600061151c82846114df565b915081905092915050565b600081519050919050565b600061153d82611527565b6115478185610e3a565b93506115578185602086016114b5565b61156081610c44565b840191505092915050565b600060208201905081810360008301526115858184611532565b90509291505056fe416464726573733a206c6f772d6c6576656c2064656c65676174652063616c6c206661696c6564a26469706673582212200184b632e5df32febd26dec9c5d68132097e87741a8654fefed3a755d6bd48c264736f6c63430008110033",
  "immutableReferences": {
    "595": [
      {
        "length": 32,
        "start": 259
      },
      {
        "length": 32,
        "start": 401
      },
      {
        "length": 32,
        "start": 651
      },
      {
        "length": 32,
        "start": 793
      },
      {
        "length": 32,
        "start": 969
      }
    ]
  },
  "source": "pragma solidity 0.8.17;\n\nimport \"@openzeppelin/contracts-upgradeable/proxy/utils/UUPSUpgradeable.sol\";\n\n\ncontract ImplementationV1 is UUPSUpgradeable {\n\n    address _owner;\n\n    function initialize() public initializer {\n        __UUPSUpgradeable_init();\n        _owner = msg.sender;\n    }\n\n    function onlyOwner() internal {\n        \n        require(msg.sender == _owner, \"Invalid owner\");\n        \n    }\n\n    function _authorizeUpgrade(address newImplementation) internal override{\n        (newImplementation);\n        onlyOwner();\n    }\n\n    function getOwner() external view returns (address) {\n        return _owner;\n    }\n\n}",
  "sourcePath": "/Users/komolehin/Documents/blockchain/UUPS/contracts/version_1/ImplementationV1.sol",
  "compiler": {
    "name": "solc",
    "version": "0.8.17+commit.8df45f5f.Emscripten.clang"
  },
  "schemaVersion": "3.4.11",
  "updatedAt": "2023-05-11T13:51:14.507Z",
  "devdoc": {
    "kind": "dev",
    "methods": {
      "proxiableUUID()": {
        "details": "Implementation of the ERC1822 {proxiableUUID} function. This returns the storage slot used by the implementation. It is used to validate the implementation's compatibility when performing an upgrade. IMPORTANT: A proxy pointing at a proxiable contract should not be considered proxiable itself, because this risks bricking a proxy that upgrades to it, by delegating to itself until out of gas. Thus it is critical that this function revert if invoked through a proxy. This is guaranteed by the `notDelegated` modifier."
      },
      "upgradeTo(address)": {
        "details": "Upgrade the implementation of the proxy to `newImplementation`. Calls {_authorizeUpgrade}. Emits an {Upgraded} event."
      },
      "upgradeToAndCall(address,bytes)": {
        "details": "Upgrade the implementation of the proxy to `newImplementation`, and subsequently execute the function call encoded in `data`. Calls {_authorizeUpgrade}. Emits an {Upgraded} event."
      }
    },
    "version": 1
  },
  "userdoc": {
    "kind": "user",
    "methods": {},
    "version": 1
  }
}