{
  "contractName": "ImplementationV2",
  "abi": [
    {
      "anonymous": false,
      "inputs": [
        {
          "indexed": false,
          "internalType": "address",
          "name": "previousAdmin",
          "type": "address"
        },
        {
          "indexed": false,
          "internalType": "address",
          "name": "newAdmin",
          "type": "address"
        }
      ],
      "name": "AdminChanged",
      "type": "event"
    },
    {
      "anonymous": false,
      "inputs": [
        {
          "indexed": true,
          "internalType": "address",
          "name": "beacon",
          "type": "address"
        }
      ],
      "name": "BeaconUpgraded",
      "type": "event"
    },
    {
      "anonymous": false,
      "inputs": [
        {
          "indexed": false,
          "internalType": "uint8",
          "name": "version",
          "type": "uint8"
        }
      ],
      "name": "Initialized",
      "type": "event"
    },
    {
      "anonymous": false,
      "inputs": [
        {
          "indexed": true,
          "internalType": "address",
          "name": "implementation",
          "type": "address"
        }
      ],
      "name": "Upgraded",
      "type": "event"
    },
    {
      "inputs": [],
      "name": "proxiableUUID",
      "outputs": [
        {
          "internalType": "bytes32",
          "name": "",
          "type": "bytes32"
        }
      ],
      "stateMutability": "view",
      "type": "function"
    },
    {
      "inputs": [
        {
          "internalType": "address",
          "name": "newImplementation",
          "type": "address"
        }
      ],
      "name": "upgradeTo",
      "outputs": [],
      "stateMutability": "nonpayable",
      "type": "function"
    },
    {
      "inputs": [
        {
          "internalType": "address",
          "name": "newImplementation",
          "type": "address"
        },
        {
          "internalType": "bytes",
          "name": "data",
          "type": "bytes"
        }
      ],
      "name": "upgradeToAndCall",
      "outputs": [],
      "stateMutability": "payable",
      "type": "function"
    },
    {
      "inputs": [],
      "name": "initialize",
      "outputs": [],
      "stateMutability": "nonpayable",
      "type": "function"
    },
    {
      "inputs": [],
      "name": "getOwner",
      "outputs": [
        {
          "internalType": "address",
          "name": "",
          "type": "address"
        }
      ],
      "stateMutability": "view",
      "type": "function"
    },
    {
      "inputs": [],
      "name": "getValue",
      "outputs": [
        {
          "internalType": "uint256",
          "name": "",
          "type": "uint256"
        }
      ],
      "stateMutability": "view",
      "type": "function"
    },
    {
      "inputs": [
        {
          "internalType": "address",
          "name": "newOwner",
          "type": "address"
        }
      ],
      "name": "transferOwnership",
      "outputs": [],
      "stateMutability": "nonpayable",
      "type": "function"
    }
  ],
  "bytecode": "0x60a06040523073ffffffffffffffffffffffffffffffffffffffff1660809073ffffffffffffffffffffffffffffffffffffffff1681525034801561004357600080fd5b506080516117c061007b60003960008181610186015281816102140152818161030e0152818161039c015261044c01526117c06000f3fe6080604052600436106100705760003560e01c806352d1902d1161004e57806352d1902d146100e55780638129fc1c14610110578063893d20e814610127578063f2fde38b1461015257610070565b806320965255146100755780633659cfe6146100a05780634f1ef286146100c9575b600080fd5b34801561008157600080fd5b5061008a61017b565b6040516100979190610cea565b60405180910390f35b3480156100ac57600080fd5b506100c760048036038101906100c29190610d77565b610184565b005b6100e360048036038101906100de9190610eea565b61030c565b005b3480156100f157600080fd5b506100fa610448565b6040516101079190610f5f565b60405180910390f35b34801561011c57600080fd5b50610125610501565b005b34801561013357600080fd5b5061013c610680565b6040516101499190610f89565b60405180910390f35b34801561015e57600080fd5b5061017960048036038101906101749190610d77565b6106aa565b005b6000601e905090565b7f000000000000000000000000000000000000000000000000000000000000000073ffffffffffffffffffffffffffffffffffffffff163073ffffffffffffffffffffffffffffffffffffffff1603610212576040517f08c379a000000000000000000000000000000000000000000000000000000000815260040161020990611027565b60405180910390fd5b7f000000000000000000000000000000000000000000000000000000000000000073ffffffffffffffffffffffffffffffffffffffff1661025161075d565b73ffffffffffffffffffffffffffffffffffffffff16146102a7576040517f08c379a000000000000000000000000000000000000000000000000000000000815260040161029e906110b9565b60405180910390fd5b6102b0816107b4565b61030981600067ffffffffffffffff8111156102cf576102ce610dbf565b5b6040519080825280601f01601f1916602001820160405280156103015781602001600182028036833780820191505090505b5060006107bf565b50565b7f000000000000000000000000000000000000000000000000000000000000000073ffffffffffffffffffffffffffffffffffffffff163073ffffffffffffffffffffffffffffffffffffffff160361039a576040517f08c379a000000000000000000000000000000000000000000000000000000000815260040161039190611027565b60405180910390fd5b7f000000000000000000000000000000000000000000000000000000000000000073ffffffffffffffffffffffffffffffffffffffff166103d961075d565b73ffffffffffffffffffffffffffffffffffffffff161461042f576040517f08c379a0000000000000000000000000000000000000000000000000000000008152600401610426906110b9565b60405180910390fd5b610438826107b4565b610444828260016107bf565b5050565b60007f000000000000000000000000000000000000000000000000000000000000000073ffffffffffffffffffffffffffffffffffffffff163073ffffffffffffffffffffffffffffffffffffffff16146104d8576040517f08c379a00000000000000000000000000000000000000000000000000000000081526004016104cf9061114b565b60405180910390fd5b7f360894a13ba1a3210667c828492db98dca3e2076cc3735a920a3ca505d382bbc60001b905090565b60008060019054906101000a900460ff161590508080156105325750600160008054906101000a900460ff1660ff16105b8061055f57506105413061092d565b15801561055e5750600160008054906101000a900460ff1660ff16145b5b61059e576040517f08c379a0000000000000000000000000000000000000000000000000000000008152600401610595906111dd565b60405180910390fd5b60016000806101000a81548160ff021916908360ff16021790555080156105db576001600060016101000a81548160ff0219169083151502179055505b6105e3610950565b33606560006101000a81548173ffffffffffffffffffffffffffffffffffffffff021916908373ffffffffffffffffffffffffffffffffffffffff160217905550801561067d5760008060016101000a81548160ff0219169083151502179055507f7f26b83ff96e1f2b6a682f133852f6798a09c465da95921460cefb38474024986001604051610674919061124f565b60405180910390a15b50565b6000606560009054906101000a900473ffffffffffffffffffffffffffffffffffffffff16905090565b600073ffffffffffffffffffffffffffffffffffffffff168173ffffffffffffffffffffffffffffffffffffffff1603610719576040517f08c379a0000000000000000000000000000000000000000000000000000000008152600401610710906112b6565b60405180910390fd5b80606560006101000a81548173ffffffffffffffffffffffffffffffffffffffff021916908373ffffffffffffffffffffffffffffffffffffffff16021790555050565b600061078b7f360894a13ba1a3210667c828492db98dca3e2076cc3735a920a3ca505d382bbc60001b6109a1565b60000160009054906101000a900473ffffffffffffffffffffffffffffffffffffffff16905090565b6107bc6109ab565b50565b6107eb7f4910fdfa16fed3260ed0e7147f7cc6da11a60208b5b9406d12a635614ffd914360001b610a3d565b60000160009054906101000a900460ff161561080f5761080a83610a47565b610928565b8273ffffffffffffffffffffffffffffffffffffffff166352d1902d6040518163ffffffff1660e01b8152600401602060405180830381865afa92505050801561087757506040513d601f19601f820116820180604052508101906108749190611302565b60015b6108b6576040517f08c379a00000000000000000000000000000000000000000000000000000000081526004016108ad906113a1565b60405180910390fd5b7f360894a13ba1a3210667c828492db98dca3e2076cc3735a920a3ca505d382bbc60001b811461091b576040517f08c379a000000000000000000000000000000000000000000000000000000000815260040161091290611433565b60405180910390fd5b50610927838383610b00565b5b505050565b6000808273ffffffffffffffffffffffffffffffffffffffff163b119050919050565b600060019054906101000a900460ff1661099f576040517f08c379a0000000000000000000000000000000000000000000000000000000008152600401610996906114c5565b60405180910390fd5b565b6000819050919050565b606560009054906101000a900473ffffffffffffffffffffffffffffffffffffffff1673ffffffffffffffffffffffffffffffffffffffff163373ffffffffffffffffffffffffffffffffffffffff1614610a3b576040517f08c379a0000000000000000000000000000000000000000000000000000000008152600401610a3290611531565b60405180910390fd5b565b6000819050919050565b610a508161092d565b610a8f576040517f08c379a0000000000000000000000000000000000000000000000000000000008152600401610a86906115c3565b60405180910390fd5b80610abc7f360894a13ba1a3210667c828492db98dca3e2076cc3735a920a3ca505d382bbc60001b6109a1565b60000160006101000a81548173ffffffffffffffffffffffffffffffffffffffff021916908373ffffffffffffffffffffffffffffffffffffffff16021790555050565b610b0983610b2c565b600082511180610b165750805b15610b2757610b258383610b7b565b505b505050565b610b3581610a47565b8073ffffffffffffffffffffffffffffffffffffffff167fbc7cd75a20ee27fd9adebab32041f755214dbc6bffa90cc0225b39da2e5c2d3b60405160405180910390a250565b6060610b868361092d565b610bc5576040517f08c379a0000000000000000000000000000000000000000000000000000000008152600401610bbc90611655565b60405180910390fd5b6000808473ffffffffffffffffffffffffffffffffffffffff1684604051610bed91906116e6565b600060405180830381855af49150503d8060008114610c28576040519150601f19603f3d011682016040523d82523d6000602084013e610c2d565b606091505b5091509150610c55828260405180606001604052806027815260200161176460279139610c5f565b9250505092915050565b60608315610c6f57829050610c7a565b610c798383610c81565b5b9392505050565b600082511115610c945781518083602001fd5b806040517f08c379a0000000000000000000000000000000000000000000000000000000008152600401610cc89190611741565b60405180910390fd5b6000819050919050565b610ce481610cd1565b82525050565b6000602082019050610cff6000830184610cdb565b92915050565b6000604051905090565b600080fd5b600080fd5b600073ffffffffffffffffffffffffffffffffffffffff82169050919050565b6000610d4482610d19565b9050919050565b610d5481610d39565b8114610d5f57600080fd5b50565b600081359050610d7181610d4b565b92915050565b600060208284031215610d8d57610d8c610d0f565b5b6000610d9b84828501610d62565b91505092915050565b600080fd5b600080fd5b6000601f19601f8301169050919050565b7f4e487b7100000000000000000000000000000000000000000000000000000000600052604160045260246000fd5b610df782610dae565b810181811067ffffffffffffffff82111715610e1657610e15610dbf565b5b80604052505050565b6000610e29610d05565b9050610e358282610dee565b919050565b600067ffffffffffffffff821115610e5557610e54610dbf565b5b610e5e82610dae565b9050602081019050919050565b82818337600083830152505050565b6000610e8d610e8884610e3a565b610e1f565b905082815260208101848484011115610ea957610ea8610da9565b5b610eb4848285610e6b565b509392505050565b600082601f830112610ed157610ed0610da4565b5b8135610ee1848260208601610e7a565b91505092915050565b60008060408385031215610f0157610f00610d0f565b5b6000610f0f85828601610d62565b925050602083013567ffffffffffffffff811115610f3057610f2f610d14565b5b610f3c85828601610ebc565b9150509250929050565b6000819050919050565b610f5981610f46565b82525050565b6000602082019050610f746000830184610f50565b92915050565b610f8381610d39565b82525050565b6000602082019050610f9e6000830184610f7a565b92915050565b600082825260208201905092915050565b7f46756e6374696f6e206d7573742062652063616c6c6564207468726f7567682060008201527f64656c656761746563616c6c0000000000000000000000000000000000000000602082015250565b6000611011602c83610fa4565b915061101c82610fb5565b604082019050919050565b6000602082019050818103600083015261104081611004565b9050919050565b7f46756e6374696f6e206d7573742062652063616c6c6564207468726f7567682060008201527f6163746976652070726f78790000000000000000000000000000000000000000602082015250565b60006110a3602c83610fa4565b91506110ae82611047565b604082019050919050565b600060208201905081810360008301526110d281611096565b9050919050565b7f555550535570677261646561626c653a206d757374206e6f742062652063616c60008201527f6c6564207468726f7567682064656c656761746563616c6c0000000000000000602082015250565b6000611135603883610fa4565b9150611140826110d9565b604082019050919050565b6000602082019050818103600083015261116481611128565b9050919050565b7f496e697469616c697a61626c653a20636f6e747261637420697320616c72656160008201527f647920696e697469616c697a6564000000000000000000000000000000000000602082015250565b60006111c7602e83610fa4565b91506111d28261116b565b604082019050919050565b600060208201905081810360008301526111f6816111ba565b9050919050565b6000819050919050565b600060ff82169050919050565b6000819050919050565b600061123961123461122f846111fd565b611214565b611207565b9050919050565b6112498161121e565b82525050565b60006020820190506112646000830184611240565b92915050565b7f496e76616c6964206e6577206f776e6572000000000000000000000000000000600082015250565b60006112a0601183610fa4565b91506112ab8261126a565b602082019050919050565b600060208201905081810360008301526112cf81611293565b9050919050565b6112df81610f46565b81146112ea57600080fd5b50565b6000815190506112fc816112d6565b92915050565b60006020828403121561131857611317610d0f565b5b6000611326848285016112ed565b91505092915050565b7f45524331393637557067726164653a206e657720696d706c656d656e7461746960008201527f6f6e206973206e6f742055555053000000000000000000000000000000000000602082015250565b600061138b602e83610fa4565b91506113968261132f565b604082019050919050565b600060208201905081810360008301526113ba8161137e565b9050919050565b7f45524331393637557067726164653a20756e737570706f727465642070726f7860008201527f6961626c65555549440000000000000000000000000000000000000000000000602082015250565b600061141d602983610fa4565b9150611428826113c1565b604082019050919050565b6000602082019050818103600083015261144c81611410565b9050919050565b7f496e697469616c697a61626c653a20636f6e7472616374206973206e6f74206960008201527f6e697469616c697a696e67000000000000000000000000000000000000000000602082015250565b60006114af602b83610fa4565b91506114ba82611453565b604082019050919050565b600060208201905081810360008301526114de816114a2565b9050919050565b7f496e76616c6964206f776e657200000000000000000000000000000000000000600082015250565b600061151b600d83610fa4565b9150611526826114e5565b602082019050919050565b6000602082019050818103600083015261154a8161150e565b9050919050565b7f455243313936373a206e657720696d706c656d656e746174696f6e206973206e60008201527f6f74206120636f6e747261637400000000000000000000000000000000000000602082015250565b60006115ad602d83610fa4565b91506115b882611551565b604082019050919050565b600060208201905081810360008301526115dc816115a0565b9050919050565b7f416464726573733a2064656c65676174652063616c6c20746f206e6f6e2d636f60008201527f6e74726163740000000000000000000000000000000000000000000000000000602082015250565b600061163f602683610fa4565b915061164a826115e3565b604082019050919050565b6000602082019050818103600083015261166e81611632565b9050919050565b600081519050919050565b600081905092915050565b60005b838110156116a957808201518184015260208101905061168e565b60008484015250505050565b60006116c082611675565b6116ca8185611680565b93506116da81856020860161168b565b80840191505092915050565b60006116f282846116b5565b915081905092915050565b600081519050919050565b6000611713826116fd565b61171d8185610fa4565b935061172d81856020860161168b565b61173681610dae565b840191505092915050565b6000602082019050818103600083015261175b8184611708565b90509291505056fe416464726573733a206c6f772d6c6576656c2064656c65676174652063616c6c206661696c6564a2646970667358221220d21b3d1da02bdec15a675af9ecfe478dfd191685eb7949821f786e90ea30770964736f6c63430008110033",
  "immutableReferences": {
    "595": [
      {
        "length": 32,
        "start": 390
      },
      {
        "length": 32,
        "start": 532
      },
      {
        "length": 32,
        "start": 782
      },
      {
        "length": 32,
        "start": 924
      },
      {
        "length": 32,
        "start": 1100
      }
    ]
  },
  "source": "pragma solidity 0.8.17;\n\nimport \"@openzeppelin/contracts-upgradeable/proxy/utils/UUPSUpgradeable.sol\";\nimport \"@openzeppelin/contracts-upgradeable/proxy/utils/Initializable.sol\";\n\ncontract ImplementationV2 is UUPSUpgradeable {\n\n    address _owner;\n\n    function initialize() public initializer {\n        __UUPSUpgradeable_init();\n        _owner = msg.sender;\n    }\n\n    function onlyOwner() internal {\n        \n        require(msg.sender == _owner, \"Invalid owner\");\n        \n    }\n\n    function _authorizeUpgrade(address newImplementation) internal override{\n        (newImplementation);\n        onlyOwner();\n    }\n\n    function getOwner() external view returns (address) {\n        return _owner;\n    }\n\n    function getValue() external view returns (uint256) {\n        return 30;\n    }\n\n    function transferOwnership(address newOwner) public  {\n        require(newOwner != address(0), \"Invalid new owner\");\n        _owner = newOwner;\n    }\n\n}",
  "sourcePath": "/Users/komolehin/Documents/blockchain/UUPS/contracts/version_2/ImplementationV2.sol",
  "compiler": {
    "name": "solc",
    "version": "0.8.17+commit.8df45f5f.Emscripten.clang"
  },
  "schemaVersion": "3.4.11",
  "updatedAt": "2023-05-11T17:43:51.741Z",
  "devdoc": {
    "kind": "dev",
    "methods": {
      "proxiableUUID()": {
        "details": "Implementation of the ERC1822 {proxiableUUID} function. This returns the storage slot used by the implementation. It is used to validate the implementation's compatibility when performing an upgrade. IMPORTANT: A proxy pointing at a proxiable contract should not be considered proxiable itself, because this risks bricking a proxy that upgrades to it, by delegating to itself until out of gas. Thus it is critical that this function revert if invoked through a proxy. This is guaranteed by the `notDelegated` modifier."
      },
      "upgradeTo(address)": {
        "details": "Upgrade the implementation of the proxy to `newImplementation`. Calls {_authorizeUpgrade}. Emits an {Upgraded} event."
      },
      "upgradeToAndCall(address,bytes)": {
        "details": "Upgrade the implementation of the proxy to `newImplementation`, and subsequently execute the function call encoded in `data`. Calls {_authorizeUpgrade}. Emits an {Upgraded} event."
      }
    },
    "version": 1
  },
  "userdoc": {
    "kind": "user",
    "methods": {},
    "version": 1
  }
}