{
  "contractName": "MyContractProxy",
  "abi": [
    {
      "inputs": [
        {
          "internalType": "address",
          "name": "_logic",
          "type": "address"
        },
        {
          "internalType": "bytes",
          "name": "_data",
          "type": "bytes"
        }
      ],
      "stateMutability": "payable",
      "type": "constructor"
    },
    {
      "anonymous": false,
      "inputs": [
        {
          "indexed": false,
          "internalType": "address",
          "name": "previousAdmin",
          "type": "address"
        },
        {
          "indexed": false,
          "internalType": "address",
          "name": "newAdmin",
          "type": "address"
        }
      ],
      "name": "AdminChanged",
      "type": "event"
    },
    {
      "anonymous": false,
      "inputs": [
        {
          "indexed": true,
          "internalType": "address",
          "name": "beacon",
          "type": "address"
        }
      ],
      "name": "BeaconUpgraded",
      "type": "event"
    },
    {
      "anonymous": false,
      "inputs": [
        {
          "indexed": false,
          "internalType": "uint8",
          "name": "version",
          "type": "uint8"
        }
      ],
      "name": "Initialized",
      "type": "event"
    },
    {
      "anonymous": false,
      "inputs": [
        {
          "indexed": true,
          "internalType": "address",
          "name": "implementation",
          "type": "address"
        }
      ],
      "name": "Upgraded",
      "type": "event"
    },
    {
      "inputs": [],
      "name": "proxiableUUID",
      "outputs": [
        {
          "internalType": "bytes32",
          "name": "",
          "type": "bytes32"
        }
      ],
      "stateMutability": "view",
      "type": "function"
    },
    {
      "inputs": [
        {
          "internalType": "address",
          "name": "newImplementation",
          "type": "address"
        }
      ],
      "name": "upgradeTo",
      "outputs": [],
      "stateMutability": "nonpayable",
      "type": "function"
    },
    {
      "inputs": [
        {
          "internalType": "address",
          "name": "newImplementation",
          "type": "address"
        },
        {
          "internalType": "bytes",
          "name": "data",
          "type": "bytes"
        }
      ],
      "name": "upgradeToAndCall",
      "outputs": [],
      "stateMutability": "payable",
      "type": "function"
    },
    {
      "inputs": [],
      "name": "getImplementation",
      "outputs": [
        {
          "internalType": "address",
          "name": "Implementation",
          "type": "address"
        }
      ],
      "stateMutability": "view",
      "type": "function"
    }
  ],
  "bytecode": "0x60a06040523073ffffffffffffffffffffffffffffffffffffffff1660809073ffffffffffffffffffffffffffffffffffffffff168152506040516200109f3803806200109f83398181016040528101906200005c9190620004ce565b6200006d826200017c60201b60201c565b33606560006101000a81548173ffffffffffffffffffffffffffffffffffffffff021916908373ffffffffffffffffffffffffffffffffffffffff16021790555060008151111562000174576000808373ffffffffffffffffffffffffffffffffffffffff1683604051620000e3919062000581565b600060405180830381855af49150503d806000811462000120576040519150601f19603f3d011682016040523d82523d6000602084013e62000125565b606091505b509150915081819062000170576040517f08c379a0000000000000000000000000000000000000000000000000000000008152600401620001679190620005f7565b60405180910390fd5b5050505b5050620006b3565b6200018d81620001d360201b60201c565b8073ffffffffffffffffffffffffffffffffffffffff167fbc7cd75a20ee27fd9adebab32041f755214dbc6bffa90cc0225b39da2e5c2d3b60405160405180910390a250565b620001e981620002a960201b620003961760201c565b6200022b576040517f08c379a0000000000000000000000000000000000000000000000000000000008152600401620002229062000691565b60405180910390fd5b80620002657f360894a13ba1a3210667c828492db98dca3e2076cc3735a920a3ca505d382bbc60001b620002cc60201b620003b91760201c565b60000160006101000a81548173ffffffffffffffffffffffffffffffffffffffff021916908373ffffffffffffffffffffffffffffffffffffffff16021790555050565b6000808273ffffffffffffffffffffffffffffffffffffffff163b119050919050565b6000819050919050565b6000604051905090565b600080fd5b600080fd5b600073ffffffffffffffffffffffffffffffffffffffff82169050919050565b60006200031782620002ea565b9050919050565b62000329816200030a565b81146200033557600080fd5b50565b60008151905062000349816200031e565b92915050565b600080fd5b600080fd5b6000601f19601f8301169050919050565b7f4e487b7100000000000000000000000000000000000000000000000000000000600052604160045260246000fd5b620003a48262000359565b810181811067ffffffffffffffff82111715620003c657620003c56200036a565b5b80604052505050565b6000620003db620002d6565b9050620003e9828262000399565b919050565b600067ffffffffffffffff8211156200040c576200040b6200036a565b5b620004178262000359565b9050602081019050919050565b60005b838110156200044457808201518184015260208101905062000427565b60008484015250505050565b6000620004676200046184620003ee565b620003cf565b90508281526020810184848401111562000486576200048562000354565b5b6200049384828562000424565b509392505050565b600082601f830112620004b357620004b26200034f565b5b8151620004c584826020860162000450565b91505092915050565b60008060408385031215620004e857620004e7620002e0565b5b6000620004f88582860162000338565b925050602083015167ffffffffffffffff8111156200051c576200051b620002e5565b5b6200052a858286016200049b565b9150509250929050565b600081519050919050565b600081905092915050565b6000620005578262000534565b6200056381856200053f565b93506200057581856020860162000424565b80840191505092915050565b60006200058f82846200054a565b915081905092915050565b600081519050919050565b600082825260208201905092915050565b6000620005c3826200059a565b620005cf8185620005a5565b9350620005e181856020860162000424565b620005ec8162000359565b840191505092915050565b60006020820190508181036000830152620006138184620005b6565b905092915050565b7f455243313936373a206e657720696d706c656d656e746174696f6e206973206e60008201527f6f74206120636f6e747261637400000000000000000000000000000000000000602082015250565b600062000679602d83620005a5565b915062000686826200061b565b604082019050919050565b60006020820190508181036000830152620006ac816200066a565b9050919050565b6080516109d0620006cf60003960006102d201526109d06000f3fe60806040526004361061003f5760003560e01c80633659cfe6146100445780634f1ef2861461006d57806352d1902d14610089578063aaf10f42146100b4575b600080fd5b34801561005057600080fd5b5061006b6004803603810190610066919061058a565b6100df565b005b6100876004803603810190610082919061061c565b61017b565b005b34801561009557600080fd5b5061009e6102ce565b6040516100ab9190610695565b60405180910390f35b3480156100c057600080fd5b506100c9610387565b6040516100d691906106bf565b60405180910390f35b606560009054906101000a900473ffffffffffffffffffffffffffffffffffffffff1673ffffffffffffffffffffffffffffffffffffffff163373ffffffffffffffffffffffffffffffffffffffff161461016f576040517f08c379a00000000000000000000000000000000000000000000000000000000081526004016101669061075d565b60405180910390fd5b610178816103c3565b50565b606560009054906101000a900473ffffffffffffffffffffffffffffffffffffffff1673ffffffffffffffffffffffffffffffffffffffff163373ffffffffffffffffffffffffffffffffffffffff161461020b576040517f08c379a00000000000000000000000000000000000000000000000000000000081526004016102029061075d565b60405180910390fd5b610214836103c3565b6000808473ffffffffffffffffffffffffffffffffffffffff16848460405161023e9291906107bc565b600060405180830381855af49150503d8060008114610279576040519150601f19603f3d011682016040523d82523d6000602084013e61027e565b606091505b50915091508181906102c6576040517f08c379a00000000000000000000000000000000000000000000000000000000081526004016102bd9190610854565b60405180910390fd5b505050505050565b60007f000000000000000000000000000000000000000000000000000000000000000073ffffffffffffffffffffffffffffffffffffffff163073ffffffffffffffffffffffffffffffffffffffff161461035e576040517f08c379a0000000000000000000000000000000000000000000000000000000008152600401610355906108e8565b60405180910390fd5b7f360894a13ba1a3210667c828492db98dca3e2076cc3735a920a3ca505d382bbc60001b905090565b6000610391610412565b905090565b6000808273ffffffffffffffffffffffffffffffffffffffff163b119050919050565b6000819050919050565b6103cc81610469565b8073ffffffffffffffffffffffffffffffffffffffff167fbc7cd75a20ee27fd9adebab32041f755214dbc6bffa90cc0225b39da2e5c2d3b60405160405180910390a250565b60006104407f360894a13ba1a3210667c828492db98dca3e2076cc3735a920a3ca505d382bbc60001b6103b9565b60000160009054906101000a900473ffffffffffffffffffffffffffffffffffffffff16905090565b61047281610396565b6104b1576040517f08c379a00000000000000000000000000000000000000000000000000000000081526004016104a89061097a565b60405180910390fd5b806104de7f360894a13ba1a3210667c828492db98dca3e2076cc3735a920a3ca505d382bbc60001b6103b9565b60000160006101000a81548173ffffffffffffffffffffffffffffffffffffffff021916908373ffffffffffffffffffffffffffffffffffffffff16021790555050565b600080fd5b600080fd5b600073ffffffffffffffffffffffffffffffffffffffff82169050919050565b60006105578261052c565b9050919050565b6105678161054c565b811461057257600080fd5b50565b6000813590506105848161055e565b92915050565b6000602082840312156105a05761059f610522565b5b60006105ae84828501610575565b91505092915050565b600080fd5b600080fd5b600080fd5b60008083601f8401126105dc576105db6105b7565b5b8235905067ffffffffffffffff8111156105f9576105f86105bc565b5b602083019150836001820283011115610615576106146105c1565b5b9250929050565b60008060006040848603121561063557610634610522565b5b600061064386828701610575565b935050602084013567ffffffffffffffff81111561066457610663610527565b5b610670868287016105c6565b92509250509250925092565b6000819050919050565b61068f8161067c565b82525050565b60006020820190506106aa6000830184610686565b92915050565b6106b98161054c565b82525050565b60006020820190506106d460008301846106b0565b92915050565b600082825260208201905092915050565b7f4f6e6c792074686520636f6e7472616374206f776e65722063616e2063616c6c60008201527f20746869732066756e6374696f6e000000000000000000000000000000000000602082015250565b6000610747602e836106da565b9150610752826106eb565b604082019050919050565b600060208201905081810360008301526107768161073a565b9050919050565b600081905092915050565b82818337600083830152505050565b60006107a3838561077d565b93506107b0838584610788565b82840190509392505050565b60006107c9828486610797565b91508190509392505050565b600081519050919050565b60005b838110156107fe5780820151818401526020810190506107e3565b60008484015250505050565b6000601f19601f8301169050919050565b6000610826826107d5565b61083081856106da565b93506108408185602086016107e0565b6108498161080a565b840191505092915050565b6000602082019050818103600083015261086e818461081b565b905092915050565b7f555550535570677261646561626c653a206d757374206e6f742062652063616c60008201527f6c6564207468726f7567682064656c656761746563616c6c0000000000000000602082015250565b60006108d26038836106da565b91506108dd82610876565b604082019050919050565b60006020820190508181036000830152610901816108c5565b9050919050565b7f455243313936373a206e657720696d706c656d656e746174696f6e206973206e60008201527f6f74206120636f6e747261637400000000000000000000000000000000000000602082015250565b6000610964602d836106da565b915061096f82610908565b604082019050919050565b6000602082019050818103600083015261099381610957565b905091905056fea2646970667358221220d8985da10e5f139f656cd82d907fe7fd5b60e5ccf89fc9fcc5816c496c7d49eb64736f6c63430008110033",
  "immutableReferences": {
    "595": [
      {
        "length": 32,
        "start": 722
      }
    ]
  },
  "source": "pragma solidity 0.8.17;\n\npragma solidity ^0.8.0;\n\nimport \"@openzeppelin/contracts-upgradeable/proxy/utils/UUPSUpgradeable.sol\";\n\ncontract MyContractProxy is UUPSUpgradeable {\n\n    address _owner;\n\n    constructor(address _logic, bytes memory _data) payable {\n        // Deploy the logic contract\n       _upgradeTo(_logic);\n        \n        _owner = msg.sender;\n        \n        // Call the logic contract's initializer\n        if (_data.length > 0) {\n            (bool success, bytes memory returnData) = _logic.delegatecall(_data);\n            require(success, string(returnData));\n        }\n    }\n\n    modifier onlyOwner() {\n        require(msg.sender == _owner, \"Only the contract owner can call this function\");\n        _;\n    }\n\n\n    function _authorizeUpgrade(address) internal override onlyOwner {}\n\n    function upgradeTo(address newImplementation) external override onlyOwner {\n        _upgradeTo(newImplementation);\n    }\n\n    function upgradeToAndCall(address newImplementation, bytes calldata data) external override payable onlyOwner {\n        _upgradeTo(newImplementation);\n        (bool success, bytes memory returnData) = newImplementation.delegatecall(data);\n        require(success, string(returnData));\n    }\n\n\n    function getImplementation() external view returns (address Implementation) {\n        return _getImplementation();\n    }\n}",
  "sourcePath": "/Users/komolehin/Documents/blockchain/UUPS/contracts/SimpleProxy.sol",
  "compiler": {
    "name": "solc",
    "version": "0.8.17+commit.8df45f5f.Emscripten.clang"
  },
  "schemaVersion": "3.4.11",
  "updatedAt": "2023-05-11T16:01:31.536Z",
  "devdoc": {
    "kind": "dev",
    "methods": {
      "proxiableUUID()": {
        "details": "Implementation of the ERC1822 {proxiableUUID} function. This returns the storage slot used by the implementation. It is used to validate the implementation's compatibility when performing an upgrade. IMPORTANT: A proxy pointing at a proxiable contract should not be considered proxiable itself, because this risks bricking a proxy that upgrades to it, by delegating to itself until out of gas. Thus it is critical that this function revert if invoked through a proxy. This is guaranteed by the `notDelegated` modifier."
      },
      "upgradeTo(address)": {
        "details": "Upgrade the implementation of the proxy to `newImplementation`. Calls {_authorizeUpgrade}. Emits an {Upgraded} event."
      },
      "upgradeToAndCall(address,bytes)": {
        "details": "Upgrade the implementation of the proxy to `newImplementation`, and subsequently execute the function call encoded in `data`. Calls {_authorizeUpgrade}. Emits an {Upgraded} event."
      }
    },
    "version": 1
  },
  "userdoc": {
    "kind": "user",
    "methods": {},
    "version": 1
  }
}