{
  "contractName": "MyContractProxy",
  "abi": [
    {
      "inputs": [
        {
          "internalType": "address",
          "name": "_logic",
          "type": "address"
        },
        {
          "internalType": "bytes",
          "name": "_data",
          "type": "bytes"
        }
      ],
      "stateMutability": "payable",
      "type": "constructor"
    },
    {
      "anonymous": false,
      "inputs": [
        {
          "indexed": false,
          "internalType": "address",
          "name": "previousAdmin",
          "type": "address"
        },
        {
          "indexed": false,
          "internalType": "address",
          "name": "newAdmin",
          "type": "address"
        }
      ],
      "name": "AdminChanged",
      "type": "event"
    },
    {
      "anonymous": false,
      "inputs": [
        {
          "indexed": true,
          "internalType": "address",
          "name": "beacon",
          "type": "address"
        }
      ],
      "name": "BeaconUpgraded",
      "type": "event"
    },
    {
      "anonymous": false,
      "inputs": [
        {
          "indexed": false,
          "internalType": "uint8",
          "name": "version",
          "type": "uint8"
        }
      ],
      "name": "Initialized",
      "type": "event"
    },
    {
      "anonymous": false,
      "inputs": [
        {
          "indexed": true,
          "internalType": "address",
          "name": "implementation",
          "type": "address"
        }
      ],
      "name": "Upgraded",
      "type": "event"
    },
    {
      "stateMutability": "payable",
      "type": "fallback"
    },
    {
      "inputs": [],
      "name": "proxiableUUID",
      "outputs": [
        {
          "internalType": "bytes32",
          "name": "",
          "type": "bytes32"
        }
      ],
      "stateMutability": "view",
      "type": "function"
    },
    {
      "inputs": [
        {
          "internalType": "address",
          "name": "newImplementation",
          "type": "address"
        }
      ],
      "name": "upgradeTo",
      "outputs": [],
      "stateMutability": "nonpayable",
      "type": "function"
    },
    {
      "inputs": [
        {
          "internalType": "address",
          "name": "newImplementation",
          "type": "address"
        },
        {
          "internalType": "bytes",
          "name": "data",
          "type": "bytes"
        }
      ],
      "name": "upgradeToAndCall",
      "outputs": [],
      "stateMutability": "payable",
      "type": "function"
    },
    {
      "inputs": [],
      "name": "getImplementation",
      "outputs": [
        {
          "internalType": "address",
          "name": "Implementation",
          "type": "address"
        }
      ],
      "stateMutability": "view",
      "type": "function"
    }
  ],
  "bytecode": "0x60a06040523073ffffffffffffffffffffffffffffffffffffffff1660809073ffffffffffffffffffffffffffffffffffffffff16815250604051620013de380380620013de83398181016040528101906200005c9190620005ce565b33606560006101000a81548173ffffffffffffffffffffffffffffffffffffffff021916908373ffffffffffffffffffffffffffffffffffffffff160217905550620000b182826000620000b960201b60201c565b50506200084b565b620000ca83620000f760201b60201c565b600082511180620000d85750805b15620000f257620000f083836200014e60201b60201c565b505b505050565b62000108816200025460201b60201c565b8073ffffffffffffffffffffffffffffffffffffffff167fbc7cd75a20ee27fd9adebab32041f755214dbc6bffa90cc0225b39da2e5c2d3b60405160405180910390a250565b606062000166836200032a60201b6200048f1760201c565b620001a8576040517f08c379a00000000000000000000000000000000000000000000000000000000081526004016200019f90620006bb565b60405180910390fd5b6000808473ffffffffffffffffffffffffffffffffffffffff1684604051620001d291906200072a565b600060405180830381855af49150503d80600081146200020f576040519150601f19603f3d011682016040523d82523d6000602084013e62000214565b606091505b50915091506200024a8282604051806060016040528060278152602001620013b7602791396200034d60201b620004b21760201c565b9250505092915050565b6200026a816200032a60201b6200048f1760201c565b620002ac576040517f08c379a0000000000000000000000000000000000000000000000000000000008152600401620002a390620007b9565b60405180910390fd5b80620002e67f360894a13ba1a3210667c828492db98dca3e2076cc3735a920a3ca505d382bbc60001b6200037960201b620004d41760201c565b60000160006101000a81548173ffffffffffffffffffffffffffffffffffffffff021916908373ffffffffffffffffffffffffffffffffffffffff16021790555050565b6000808273ffffffffffffffffffffffffffffffffffffffff163b119050919050565b606083156200035f5782905062000372565b6200037183836200038360201b60201c565b5b9392505050565b6000819050919050565b600082511115620003975781518083602001fd5b806040517f08c379a0000000000000000000000000000000000000000000000000000000008152600401620003cd919062000827565b60405180910390fd5b6000604051905090565b600080fd5b600080fd5b600073ffffffffffffffffffffffffffffffffffffffff82169050919050565b60006200041782620003ea565b9050919050565b62000429816200040a565b81146200043557600080fd5b50565b60008151905062000449816200041e565b92915050565b600080fd5b600080fd5b6000601f19601f8301169050919050565b7f4e487b7100000000000000000000000000000000000000000000000000000000600052604160045260246000fd5b620004a48262000459565b810181811067ffffffffffffffff82111715620004c657620004c56200046a565b5b80604052505050565b6000620004db620003d6565b9050620004e9828262000499565b919050565b600067ffffffffffffffff8211156200050c576200050b6200046a565b5b620005178262000459565b9050602081019050919050565b60005b838110156200054457808201518184015260208101905062000527565b60008484015250505050565b6000620005676200056184620004ee565b620004cf565b90508281526020810184848401111562000586576200058562000454565b5b6200059384828562000524565b509392505050565b600082601f830112620005b357620005b26200044f565b5b8151620005c584826020860162000550565b91505092915050565b60008060408385031215620005e857620005e7620003e0565b5b6000620005f88582860162000438565b925050602083015167ffffffffffffffff8111156200061c576200061b620003e5565b5b6200062a858286016200059b565b9150509250929050565b600082825260208201905092915050565b7f416464726573733a2064656c65676174652063616c6c20746f206e6f6e2d636f60008201527f6e74726163740000000000000000000000000000000000000000000000000000602082015250565b6000620006a360268362000634565b9150620006b08262000645565b604082019050919050565b60006020820190508181036000830152620006d68162000694565b9050919050565b600081519050919050565b600081905092915050565b60006200070082620006dd565b6200070c8185620006e8565b93506200071e81856020860162000524565b80840191505092915050565b6000620007388284620006f3565b915081905092915050565b7f455243313936373a206e657720696d706c656d656e746174696f6e206973206e60008201527f6f74206120636f6e747261637400000000000000000000000000000000000000602082015250565b6000620007a1602d8362000634565b9150620007ae8262000743565b604082019050919050565b60006020820190508181036000830152620007d48162000792565b9050919050565b600081519050919050565b6000620007f382620007db565b620007ff818562000634565b93506200081181856020860162000524565b6200081c8162000459565b840191505092915050565b60006020820190508181036000830152620008438184620007e6565b905092915050565b608051610b506200086760003960006103cb0152610b506000f3fe6080604052600436106100435760003560e01c80633659cfe6146100e65780634f1ef2861461010f57806352d1902d1461012b578063aaf10f421461015657610044565b5b600061004e610181565b9050600073ffffffffffffffffffffffffffffffffffffffff168173ffffffffffffffffffffffffffffffffffffffff16036100bf576040517f08c379a00000000000000000000000000000000000000000000000000000000081526004016100b690610693565b60405180910390fd5b60405136600082376000803683855af43d806000843e81600081146100e2578184f35b8184fd5b3480156100f257600080fd5b5061010d6004803603810190610108919061071b565b6101d8565b005b610129600480360381019061012491906107ad565b610274565b005b34801561013757600080fd5b506101406103c7565b60405161014d9190610826565b60405180910390f35b34801561016257600080fd5b5061016b610480565b6040516101789190610850565b60405180910390f35b60006101af7f360894a13ba1a3210667c828492db98dca3e2076cc3735a920a3ca505d382bbc60001b6104d4565b60000160009054906101000a900473ffffffffffffffffffffffffffffffffffffffff16905090565b606560009054906101000a900473ffffffffffffffffffffffffffffffffffffffff1673ffffffffffffffffffffffffffffffffffffffff163373ffffffffffffffffffffffffffffffffffffffff1614610268576040517f08c379a000000000000000000000000000000000000000000000000000000000815260040161025f906108dd565b60405180910390fd5b610271816104de565b50565b606560009054906101000a900473ffffffffffffffffffffffffffffffffffffffff1673ffffffffffffffffffffffffffffffffffffffff163373ffffffffffffffffffffffffffffffffffffffff1614610304576040517f08c379a00000000000000000000000000000000000000000000000000000000081526004016102fb906108dd565b60405180910390fd5b61030d836104de565b6000808473ffffffffffffffffffffffffffffffffffffffff16848460405161033792919061093c565b600060405180830381855af49150503d8060008114610372576040519150601f19603f3d011682016040523d82523d6000602084013e610377565b606091505b50915091508181906103bf576040517f08c379a00000000000000000000000000000000000000000000000000000000081526004016103b691906109d4565b60405180910390fd5b505050505050565b60007f000000000000000000000000000000000000000000000000000000000000000073ffffffffffffffffffffffffffffffffffffffff163073ffffffffffffffffffffffffffffffffffffffff1614610457576040517f08c379a000000000000000000000000000000000000000000000000000000000815260040161044e90610a68565b60405180910390fd5b7f360894a13ba1a3210667c828492db98dca3e2076cc3735a920a3ca505d382bbc60001b905090565b600061048a610181565b905090565b6000808273ffffffffffffffffffffffffffffffffffffffff163b119050919050565b606083156104c2578290506104cd565b6104cc838361052d565b5b9392505050565b6000819050919050565b6104e78161057d565b8073ffffffffffffffffffffffffffffffffffffffff167fbc7cd75a20ee27fd9adebab32041f755214dbc6bffa90cc0225b39da2e5c2d3b60405160405180910390a250565b6000825111156105405781518083602001fd5b806040517f08c379a000000000000000000000000000000000000000000000000000000000815260040161057491906109d4565b60405180910390fd5b6105868161048f565b6105c5576040517f08c379a00000000000000000000000000000000000000000000000000000000081526004016105bc90610afa565b60405180910390fd5b806105f27f360894a13ba1a3210667c828492db98dca3e2076cc3735a920a3ca505d382bbc60001b6104d4565b60000160006101000a81548173ffffffffffffffffffffffffffffffffffffffff021916908373ffffffffffffffffffffffffffffffffffffffff16021790555050565b600082825260208201905092915050565b7f496d706c656d656e746174696f6e2061646472657373206e6f74207365740000600082015250565b600061067d601e83610636565b915061068882610647565b602082019050919050565b600060208201905081810360008301526106ac81610670565b9050919050565b600080fd5b600080fd5b600073ffffffffffffffffffffffffffffffffffffffff82169050919050565b60006106e8826106bd565b9050919050565b6106f8816106dd565b811461070357600080fd5b50565b600081359050610715816106ef565b92915050565b600060208284031215610731576107306106b3565b5b600061073f84828501610706565b91505092915050565b600080fd5b600080fd5b600080fd5b60008083601f84011261076d5761076c610748565b5b8235905067ffffffffffffffff81111561078a5761078961074d565b5b6020830191508360018202830111156107a6576107a5610752565b5b9250929050565b6000806000604084860312156107c6576107c56106b3565b5b60006107d486828701610706565b935050602084013567ffffffffffffffff8111156107f5576107f46106b8565b5b61080186828701610757565b92509250509250925092565b6000819050919050565b6108208161080d565b82525050565b600060208201905061083b6000830184610817565b92915050565b61084a816106dd565b82525050565b60006020820190506108656000830184610841565b92915050565b7f4f6e6c792074686520636f6e7472616374206f776e65722063616e2063616c6c60008201527f20746869732066756e6374696f6e000000000000000000000000000000000000602082015250565b60006108c7602e83610636565b91506108d28261086b565b604082019050919050565b600060208201905081810360008301526108f6816108ba565b9050919050565b600081905092915050565b82818337600083830152505050565b600061092383856108fd565b9350610930838584610908565b82840190509392505050565b6000610949828486610917565b91508190509392505050565b600081519050919050565b60005b8381101561097e578082015181840152602081019050610963565b60008484015250505050565b6000601f19601f8301169050919050565b60006109a682610955565b6109b08185610636565b93506109c0818560208601610960565b6109c98161098a565b840191505092915050565b600060208201905081810360008301526109ee818461099b565b905092915050565b7f555550535570677261646561626c653a206d757374206e6f742062652063616c60008201527f6c6564207468726f7567682064656c656761746563616c6c0000000000000000602082015250565b6000610a52603883610636565b9150610a5d826109f6565b604082019050919050565b60006020820190508181036000830152610a8181610a45565b9050919050565b7f455243313936373a206e657720696d706c656d656e746174696f6e206973206e60008201527f6f74206120636f6e747261637400000000000000000000000000000000000000602082015250565b6000610ae4602d83610636565b9150610aef82610a88565b604082019050919050565b60006020820190508181036000830152610b1381610ad7565b905091905056fea26469706673582212206e68dc9d95650fb3667d83032aa0101f3ddbfdbdd5666ae68f1dc028e99e18e864736f6c63430008110033416464726573733a206c6f772d6c6576656c2064656c65676174652063616c6c206661696c6564",
  "immutableReferences": {
    "595": [
      {
        "length": 32,
        "start": 971
      }
    ]
  },
  "source": "pragma solidity 0.8.17;\n\npragma solidity ^0.8.0;\n\nimport \"@openzeppelin/contracts-upgradeable/proxy/utils/UUPSUpgradeable.sol\";\n\ncontract MyContractProxy is UUPSUpgradeable {\n\n    address _owner;\n\n    constructor(address _logic, bytes memory _data) payable {\n        // Deploy the logic contract\n       //_upgradeTo(_logic);\n        \n        _owner = msg.sender;\n        \n        // Call the logic contract's initializer\n        // if (_data.length > 0) {\n        //     (bool success, bytes memory returnData) = _logic.delegatecall(_data);\n        //     require(success, string(returnData));\n        // }\n\n        _upgradeToAndCall(_logic, _data, false);\n    }\n\n    modifier onlyOwner() {\n        require(msg.sender == _owner, \"Only the contract owner can call this function\");\n        _;\n    }\n\n\n    function _authorizeUpgrade(address) internal override onlyOwner {}\n\n    function upgradeTo(address newImplementation) external override onlyOwner {\n        _upgradeTo(newImplementation);\n    }\n\n    function upgradeToAndCall(address newImplementation, bytes calldata data) external override payable onlyOwner {\n        _upgradeTo(newImplementation);\n        (bool success, bytes memory returnData) = newImplementation.delegatecall(data);\n        require(success, string(returnData));\n    }\n\n\n    function getImplementation() external view returns (address Implementation) {\n        return _getImplementation();\n    }\n\n\n    fallback() external payable {\n        address _impl = _getImplementation();\n        require(_impl != address(0), \"Implementation address not set\");\n\n        assembly {\n            let ptr := mload(0x40)\n            calldatacopy(ptr, 0, calldatasize())\n            let result := delegatecall(gas(), _impl, ptr, calldatasize(), 0, 0)\n            let size := returndatasize()\n            returndatacopy(ptr, 0, size)\n\n            switch result\n            case 0 {\n                revert(ptr, size)\n            }\n            default {\n                return(ptr, size)\n            }\n        }\n    }\n}",
  "sourcePath": "/Users/komolehin/Documents/blockchain/UUPS/contracts/SimpleProxy.sol",
  "compiler": {
    "name": "solc",
    "version": "0.8.17+commit.8df45f5f.Emscripten.clang"
  },
  "schemaVersion": "3.4.11",
  "updatedAt": "2023-05-11T17:43:41.085Z",
  "devdoc": {
    "kind": "dev",
    "methods": {
      "proxiableUUID()": {
        "details": "Implementation of the ERC1822 {proxiableUUID} function. This returns the storage slot used by the implementation. It is used to validate the implementation's compatibility when performing an upgrade. IMPORTANT: A proxy pointing at a proxiable contract should not be considered proxiable itself, because this risks bricking a proxy that upgrades to it, by delegating to itself until out of gas. Thus it is critical that this function revert if invoked through a proxy. This is guaranteed by the `notDelegated` modifier."
      },
      "upgradeTo(address)": {
        "details": "Upgrade the implementation of the proxy to `newImplementation`. Calls {_authorizeUpgrade}. Emits an {Upgraded} event."
      },
      "upgradeToAndCall(address,bytes)": {
        "details": "Upgrade the implementation of the proxy to `newImplementation`, and subsequently execute the function call encoded in `data`. Calls {_authorizeUpgrade}. Emits an {Upgraded} event."
      }
    },
    "version": 1
  },
  "userdoc": {
    "kind": "user",
    "methods": {},
    "version": 1
  }
}