{
  "contractName": "MyContractProxy",
  "abi": [
    {
      "inputs": [
        {
          "internalType": "address",
          "name": "_logic",
          "type": "address"
        },
        {
          "internalType": "bytes",
          "name": "_data",
          "type": "bytes"
        }
      ],
      "stateMutability": "payable",
      "type": "constructor"
    },
    {
      "anonymous": false,
      "inputs": [
        {
          "indexed": false,
          "internalType": "address",
          "name": "previousAdmin",
          "type": "address"
        },
        {
          "indexed": false,
          "internalType": "address",
          "name": "newAdmin",
          "type": "address"
        }
      ],
      "name": "AdminChanged",
      "type": "event"
    },
    {
      "anonymous": false,
      "inputs": [
        {
          "indexed": true,
          "internalType": "address",
          "name": "beacon",
          "type": "address"
        }
      ],
      "name": "BeaconUpgraded",
      "type": "event"
    },
    {
      "anonymous": false,
      "inputs": [
        {
          "indexed": false,
          "internalType": "uint8",
          "name": "version",
          "type": "uint8"
        }
      ],
      "name": "Initialized",
      "type": "event"
    },
    {
      "anonymous": false,
      "inputs": [
        {
          "indexed": true,
          "internalType": "address",
          "name": "implementation",
          "type": "address"
        }
      ],
      "name": "Upgraded",
      "type": "event"
    },
    {
      "inputs": [],
      "name": "proxiableUUID",
      "outputs": [
        {
          "internalType": "bytes32",
          "name": "",
          "type": "bytes32"
        }
      ],
      "stateMutability": "view",
      "type": "function"
    },
    {
      "inputs": [
        {
          "internalType": "address",
          "name": "newImplementation",
          "type": "address"
        }
      ],
      "name": "upgradeTo",
      "outputs": [],
      "stateMutability": "nonpayable",
      "type": "function"
    },
    {
      "inputs": [
        {
          "internalType": "address",
          "name": "newImplementation",
          "type": "address"
        },
        {
          "internalType": "bytes",
          "name": "data",
          "type": "bytes"
        }
      ],
      "name": "upgradeToAndCall",
      "outputs": [],
      "stateMutability": "payable",
      "type": "function"
    }
  ],
  "bytecode": "0x60a06040523073ffffffffffffffffffffffffffffffffffffffff1660809073ffffffffffffffffffffffffffffffffffffffff1681525060405162000fd938038062000fd983398181016040528101906200005c9190620004ce565b6200006d826200017c60201b60201c565b33606560006101000a81548173ffffffffffffffffffffffffffffffffffffffff021916908373ffffffffffffffffffffffffffffffffffffffff16021790555060008151111562000174576000808373ffffffffffffffffffffffffffffffffffffffff1683604051620000e3919062000581565b600060405180830381855af49150503d806000811462000120576040519150601f19603f3d011682016040523d82523d6000602084013e62000125565b606091505b509150915081819062000170576040517f08c379a0000000000000000000000000000000000000000000000000000000008152600401620001679190620005f7565b60405180910390fd5b5050505b5050620006b3565b6200018d81620001d360201b60201c565b8073ffffffffffffffffffffffffffffffffffffffff167fbc7cd75a20ee27fd9adebab32041f755214dbc6bffa90cc0225b39da2e5c2d3b60405160405180910390a250565b620001e981620002a960201b620003511760201c565b6200022b576040517f08c379a0000000000000000000000000000000000000000000000000000000008152600401620002229062000691565b60405180910390fd5b80620002657f360894a13ba1a3210667c828492db98dca3e2076cc3735a920a3ca505d382bbc60001b620002cc60201b620003741760201c565b60000160006101000a81548173ffffffffffffffffffffffffffffffffffffffff021916908373ffffffffffffffffffffffffffffffffffffffff16021790555050565b6000808273ffffffffffffffffffffffffffffffffffffffff163b119050919050565b6000819050919050565b6000604051905090565b600080fd5b600080fd5b600073ffffffffffffffffffffffffffffffffffffffff82169050919050565b60006200031782620002ea565b9050919050565b62000329816200030a565b81146200033557600080fd5b50565b60008151905062000349816200031e565b92915050565b600080fd5b600080fd5b6000601f19601f8301169050919050565b7f4e487b7100000000000000000000000000000000000000000000000000000000600052604160045260246000fd5b620003a48262000359565b810181811067ffffffffffffffff82111715620003c657620003c56200036a565b5b80604052505050565b6000620003db620002d6565b9050620003e9828262000399565b919050565b600067ffffffffffffffff8211156200040c576200040b6200036a565b5b620004178262000359565b9050602081019050919050565b60005b838110156200044457808201518184015260208101905062000427565b60008484015250505050565b6000620004676200046184620003ee565b620003cf565b90508281526020810184848401111562000486576200048562000354565b5b6200049384828562000424565b509392505050565b600082601f830112620004b357620004b26200034f565b5b8151620004c584826020860162000450565b91505092915050565b60008060408385031215620004e857620004e7620002e0565b5b6000620004f88582860162000338565b925050602083015167ffffffffffffffff8111156200051c576200051b620002e5565b5b6200052a858286016200049b565b9150509250929050565b600081519050919050565b600081905092915050565b6000620005578262000534565b6200056381856200053f565b93506200057581856020860162000424565b80840191505092915050565b60006200058f82846200054a565b915081905092915050565b600081519050919050565b600082825260208201905092915050565b6000620005c3826200059a565b620005cf8185620005a5565b9350620005e181856020860162000424565b620005ec8162000359565b840191505092915050565b60006020820190508181036000830152620006138184620005b6565b905092915050565b7f455243313936373a206e657720696d706c656d656e746174696f6e206973206e60008201527f6f74206120636f6e747261637400000000000000000000000000000000000000602082015250565b600062000679602d83620005a5565b915062000686826200061b565b604082019050919050565b60006020820190508181036000830152620006ac816200066a565b9050919050565b60805161090a620006cf600039600061029c015261090a6000f3fe6080604052600436106100345760003560e01c80633659cfe6146100395780634f1ef2861461006257806352d1902d1461007e575b600080fd5b34801561004557600080fd5b50610060600480360381019061005b91906104ee565b6100a9565b005b61007c60048036038101906100779190610580565b610145565b005b34801561008a57600080fd5b50610093610298565b6040516100a091906105f9565b60405180910390f35b606560009054906101000a900473ffffffffffffffffffffffffffffffffffffffff1673ffffffffffffffffffffffffffffffffffffffff163373ffffffffffffffffffffffffffffffffffffffff1614610139576040517f08c379a000000000000000000000000000000000000000000000000000000000815260040161013090610697565b60405180910390fd5b6101428161037e565b50565b606560009054906101000a900473ffffffffffffffffffffffffffffffffffffffff1673ffffffffffffffffffffffffffffffffffffffff163373ffffffffffffffffffffffffffffffffffffffff16146101d5576040517f08c379a00000000000000000000000000000000000000000000000000000000081526004016101cc90610697565b60405180910390fd5b6101de8361037e565b6000808473ffffffffffffffffffffffffffffffffffffffff1684846040516102089291906106f6565b600060405180830381855af49150503d8060008114610243576040519150601f19603f3d011682016040523d82523d6000602084013e610248565b606091505b5091509150818190610290576040517f08c379a0000000000000000000000000000000000000000000000000000000008152600401610287919061078e565b60405180910390fd5b505050505050565b60007f000000000000000000000000000000000000000000000000000000000000000073ffffffffffffffffffffffffffffffffffffffff163073ffffffffffffffffffffffffffffffffffffffff1614610328576040517f08c379a000000000000000000000000000000000000000000000000000000000815260040161031f90610822565b60405180910390fd5b7f360894a13ba1a3210667c828492db98dca3e2076cc3735a920a3ca505d382bbc60001b905090565b6000808273ffffffffffffffffffffffffffffffffffffffff163b119050919050565b6000819050919050565b610387816103cd565b8073ffffffffffffffffffffffffffffffffffffffff167fbc7cd75a20ee27fd9adebab32041f755214dbc6bffa90cc0225b39da2e5c2d3b60405160405180910390a250565b6103d681610351565b610415576040517f08c379a000000000000000000000000000000000000000000000000000000000815260040161040c906108b4565b60405180910390fd5b806104427f360894a13ba1a3210667c828492db98dca3e2076cc3735a920a3ca505d382bbc60001b610374565b60000160006101000a81548173ffffffffffffffffffffffffffffffffffffffff021916908373ffffffffffffffffffffffffffffffffffffffff16021790555050565b600080fd5b600080fd5b600073ffffffffffffffffffffffffffffffffffffffff82169050919050565b60006104bb82610490565b9050919050565b6104cb816104b0565b81146104d657600080fd5b50565b6000813590506104e8816104c2565b92915050565b60006020828403121561050457610503610486565b5b6000610512848285016104d9565b91505092915050565b600080fd5b600080fd5b600080fd5b60008083601f8401126105405761053f61051b565b5b8235905067ffffffffffffffff81111561055d5761055c610520565b5b60208301915083600182028301111561057957610578610525565b5b9250929050565b60008060006040848603121561059957610598610486565b5b60006105a7868287016104d9565b935050602084013567ffffffffffffffff8111156105c8576105c761048b565b5b6105d48682870161052a565b92509250509250925092565b6000819050919050565b6105f3816105e0565b82525050565b600060208201905061060e60008301846105ea565b92915050565b600082825260208201905092915050565b7f4f6e6c792074686520636f6e7472616374206f776e65722063616e2063616c6c60008201527f20746869732066756e6374696f6e000000000000000000000000000000000000602082015250565b6000610681602e83610614565b915061068c82610625565b604082019050919050565b600060208201905081810360008301526106b081610674565b9050919050565b600081905092915050565b82818337600083830152505050565b60006106dd83856106b7565b93506106ea8385846106c2565b82840190509392505050565b60006107038284866106d1565b91508190509392505050565b600081519050919050565b60005b8381101561073857808201518184015260208101905061071d565b60008484015250505050565b6000601f19601f8301169050919050565b60006107608261070f565b61076a8185610614565b935061077a81856020860161071a565b61078381610744565b840191505092915050565b600060208201905081810360008301526107a88184610755565b905092915050565b7f555550535570677261646561626c653a206d757374206e6f742062652063616c60008201527f6c6564207468726f7567682064656c656761746563616c6c0000000000000000602082015250565b600061080c603883610614565b9150610817826107b0565b604082019050919050565b6000602082019050818103600083015261083b816107ff565b9050919050565b7f455243313936373a206e657720696d706c656d656e746174696f6e206973206e60008201527f6f74206120636f6e747261637400000000000000000000000000000000000000602082015250565b600061089e602d83610614565b91506108a982610842565b604082019050919050565b600060208201905081810360008301526108cd81610891565b905091905056fea264697066735822122094e24c74c8e8be475e02d1005e16557594d4151c53d99709381377ec57c64eb464736f6c63430008110033",
  "immutableReferences": {
    "595": [
      {
        "length": 32,
        "start": 668
      }
    ]
  },
  "source": "pragma solidity 0.8.17;\n\npragma solidity ^0.8.0;\n\nimport \"@openzeppelin/contracts-upgradeable/proxy/utils/UUPSUpgradeable.sol\";\n\ncontract MyContractProxy is UUPSUpgradeable {\n\n    address _owner;\n\n    constructor(address _logic, bytes memory _data) payable {\n        // Deploy the logic contract\n       _upgradeTo(_logic);\n        \n        _owner = msg.sender;\n        \n        // Call the logic contract's initializer\n        if (_data.length > 0) {\n            (bool success, bytes memory returnData) = _logic.delegatecall(_data);\n            require(success, string(returnData));\n        }\n    }\n\n    modifier onlyOwner() {\n        require(msg.sender == _owner, \"Only the contract owner can call this function\");\n        _;\n    }\n\n\n    function _authorizeUpgrade(address) internal override onlyOwner {}\n\n    function upgradeTo(address newImplementation) external override onlyOwner {\n        _upgradeTo(newImplementation);\n    }\n\n    function upgradeToAndCall(address newImplementation, bytes calldata data) external override payable onlyOwner {\n        _upgradeTo(newImplementation);\n        (bool success, bytes memory returnData) = newImplementation.delegatecall(data);\n        require(success, string(returnData));\n    }\n}",
  "sourcePath": "/Users/komolehin/Documents/blockchain/UUPS/contracts/SimpleProxy.sol",
  "compiler": {
    "name": "solc",
    "version": "0.8.17+commit.8df45f5f.Emscripten.clang"
  },
  "schemaVersion": "3.4.11",
  "updatedAt": "2023-05-11T15:32:36.613Z",
  "devdoc": {
    "kind": "dev",
    "methods": {
      "proxiableUUID()": {
        "details": "Implementation of the ERC1822 {proxiableUUID} function. This returns the storage slot used by the implementation. It is used to validate the implementation's compatibility when performing an upgrade. IMPORTANT: A proxy pointing at a proxiable contract should not be considered proxiable itself, because this risks bricking a proxy that upgrades to it, by delegating to itself until out of gas. Thus it is critical that this function revert if invoked through a proxy. This is guaranteed by the `notDelegated` modifier."
      },
      "upgradeTo(address)": {
        "details": "Upgrade the implementation of the proxy to `newImplementation`. Calls {_authorizeUpgrade}. Emits an {Upgraded} event."
      },
      "upgradeToAndCall(address,bytes)": {
        "details": "Upgrade the implementation of the proxy to `newImplementation`, and subsequently execute the function call encoded in `data`. Calls {_authorizeUpgrade}. Emits an {Upgraded} event."
      }
    },
    "version": 1
  },
  "userdoc": {
    "kind": "user",
    "methods": {},
    "version": 1
  }
}